:100000002CC050C04FC04EC04DC04CC04BC04AC0A9
:1000100049C048C047C07FC145C044C043C042C07A
:1000200041C000010203040500003A00370000004F
:100030003B0038000101010101010101020202023D
:1000400001020408102040800402010800000000A2
:100050000004030201000000040311241FBECFE5C9
:10006000D2E0DEBFCDBF10E0A0E6B0E0ECE4F6E009
:1000700002C005900D92A636B107D9F720E0A6E69A
:10008000B0E001C01D92A738B207E1F710E0CDE261
:10009000D0E003C02197FE01D1D2CC32D107D1F7F5
:1000A00084D1D2C2ADCF3FB7F89480916B009091CC
:1000B0006C00A0916D00B0916E0022B708B600FEF2
:1000C00005C02F3F19F00196A11DB11D3FBFBA2FEA
:1000D000A92F982F8827BC01CD01620F711D811DAA
:1000E000911D43E0660F771F881F991F4A95D1F72E
:1000F0000895CF92DF92EF92FF92CF93DF936B013F
:100100007C01D1DFEB01CFDF6C1B7D0B683E7340C0
:10011000A0F0C114D104E104F10439F4DF91CF91CE
:10012000FF90EF90DF90CF90089581E0C81AD1083A
:10013000E108F108C851DC4FE6CFC114D104E10455
:10014000F10409F7EBCF8FB980E48EB98BE18DB95B
:10015000769BFDCF8FB1089587FD8F7790E0FC01EE
:10016000E45BFF4F3491FC01E05CFF4F2491FC0104
:10017000EC5CFF4FE491EE23B9F0332329F03130EA
:10018000A1F480B78F7780BFF0E0EE0FFF1FE25D34
:10019000FF4FA591B4918FB7611117C0F894EC91FE
:1001A00020952E232C938FBF0895323019F480B7F9
:1001B0008F7DE9CF333021F48FB58F778FBDE4CFBA
:1001C000343011F78FB58F7DF9CFF894EC912E2B49
:1001D000E9CF682F809171009091720020916F009B
:1001E000309170002817390709F0B6CF662331F037
:1001F000C29A84EC90E00197F1F70895C29882E1E9
:1002000090E0F9CF0F931F93CF93DF93D82FC62F92
:1002100080E0DFDF8D2F806296DFD82F00E610E0D0
:10022000C15028F0F80181918F018DDFF9CF81E075
:10023000D0DF8D2FDF91CF911F910F910895CF9334
:10024000DF93C82FD62F80E0C4DF8C2F80627BDF46
:10025000C82F8D2F78DF81E0BCDF8C2FDF91CF910D
:100260000895CF93C82F80E0B4DF8C2F6CDF8FEF21
:100270006ADFC82F81E0ADDF8C2FCF91089580E039
:10028000F0DF81FD09C0682F626080E0D8DF65E0A3
:1002900070E080E090E02DCF0895CF9380E099DF6B
:1002A00081EE51DFC82F81E094DF8C2FCF9108952C
:1002B000CF93DF9387FD8F7790E0FC01E05CFF4FE9
:1002C00024918C5C9F4FFC0184918823D1F090E0B5
:1002D000880F991FFC01E85DFF4FA591B491FC01C7
:1002E000E25DFF4FC591D49161110EC09FB7F894A4
:1002F0008C91E22FE0958E238C932881E223E88372
:100300009FBFDF91CF9108958FB7F894EC91E22BC6
:10031000EC938FBFF6CF1F920F920FB60F9211245E
:100320002F933F938F939F93AF93BF9380916700D9
:1003300090916800A0916900B0916A0030916600C8
:1003400026E0230F2D3768F129E8230F0396A11D1E
:10035000B11D209366008093670090936800A0937E
:100360006900B0936A0080916B0090916C00A0913D
:100370006D00B0916E000196A11DB11D80936B00C0
:1003800090936C00A0936D00B0936E00BF91AF91FD
:100390009F918F913F912F910F900FBE0F901F90C3
:1003A00018950296A11DB11DD4CF83E080BF83BFF5
:1003B000789499B7916099BF91E09FBD8EBD86E812
:1003C00086B961E088E074DF60E081E871DF61E0B8
:1003D0008AE06EDF61E089E06BDF60E080E068DF8B
:1003E00060E082E065DF61E088E0B6DED0E14BE905
:1003F000C42ED12CE12CF12C55E5852E912CA12C6D
:10040000B12C80916F00909170002091710030911B
:1004100072008217930711F061E04ADF809171004A
:100420009091720020916F00309170002817390769
:1004300011F061E03DDF8AB380638ABBD698DDB9F5
:1004400080916F0090917000209171003091720046
:100450008217930711F060E07FDE81E0BADE65E08D
:1004600070E080E090E045DE6CE080E0E8DE6FE583
:1004700084E0E5DE86E0F5DE877DC82FC062C092AD
:100480007F00D0928000E0928100F09282006C2F79
:1004900086E0D5DE86E0E5DEC81303C081E0809308
:1004A000750086E0DEDEC82F86E0DBDE80927F000E
:1004B00090928000A0928100B0928200682F677DA8
:1004C00086E0BDDE86E0CDDE80E083DE80E53BDEDB
:1004D00083E739DE81E07DDE60E08DE1B0DE60E063
:1004E0008CE1ADDE1092770060E787E0A8DE6CE477
:1004F00085E0A5DE80E06DDE82EE25DE81E069DE4E
:10050000CCDEBDDE80E0ADDE682F6E7F80E097DE62
:10051000C150CE3F30F06CE271E080E090E0E9DD68
:1005200070CF60917D008AE06DDE60917D0080E19A
:1005300069DE6091760081E182DE86E092DE682FDE
:10054000676086E07CDE80916F0090917000209162
:100550007100309172008217930711F060E0FCDDAA
:1005600080917F00909180008330910528F0880F62
:10057000991F04970197F1F78DE173DE81FF0DC09C
:1005800080917F00909180008330910528F0880F42
:10059000991F04970197F1F780DE80E062DE682FF3
:1005A0006E7F80E04CDE20916F0030917000809172
:1005B0007100909172002817390739F480E051DEFC
:1005C000682F6D7F80E03BDE5ADE82E04ADEE2E2A9
:1005D000F0E0E49161E070E001C0660FEA95EAF7AF
:1005E000682B82E02CDE64EF71E080E090E081DD3A
:1005F00061E088E0B1DD64EF71E080E090E079DDFA
:1006000060E088E0A9DDEFCFEFE6F0E083E090E086
:100610009183808387E090E093838283168280E2D7
:100620008783108685E0868785E090E0A0E0B0E0D3
:10063000848B958BA68BB78B11860895EE0FFF1FC9
:0C0640000590F491E02D0994F894FFCF90
:06064C00303030303100B7
:00000001FF
